{
  "contractName": "BitLibrary",
  "abi": [
    {
      "constant": false,
      "inputs": [
        {
          "name": "self",
          "type": "BitLibrary.Data storage"
        },
        {
          "name": "_bit",
          "type": "bool"
        }
      ],
      "name": "set",
      "outputs": [],
      "payable": false,
      "stateMutability": "nonpayable",
      "type": "function"
    },
    {
      "constant": true,
      "inputs": [
        {
          "name": "self",
          "type": "BitLibrary.Data storage"
        }
      ],
      "name": "get",
      "outputs": [
        {
          "name": "",
          "type": "bool"
        }
      ],
      "payable": false,
      "stateMutability": "view",
      "type": "function"
    }
  ],
  "bytecode": "0x610140610030600b82828239805160001a6073146000811461002057610022565bfe5b5030600052607381538281f3007300000000000000000000000000000000000000003014608060405260043610610063576000357c0100000000000000000000000000000000000000000000000000000000900463ffffffff1680637b6e210b14610068578063b52673c4146100a1575b600080fd5b81801561007457600080fd5b5061009f600480360381019080803590602001909291908035151590602001909291905050506100d9565b005b6100bf600480360381019080803590602001909291905050506100f9565b604051808215151515815260200191505060405180910390f35b808260000160006101000a81548160ff0219169083151502179055505050565b60008160000160009054906101000a900460ff1690509190505600a165627a7a72305820dd09ea35f28ff3d55da5ed97f93ef0cc96fbdc0d7903be510a4fff7964fafcbf0029",
  "source": "pragma solidity ^0.4.23;\r\n\r\nlibrary BitLibrary {\r\n    struct Data {\r\n        bool bit;\r\n    }\r\n\r\n    function set(Data storage self, bool _bit) public {\r\n        self.bit = _bit;\r\n    }\r\n\r\n    function get(Data storage self) public view returns(bool) {\r\n        return self.bit;\r\n    }\r\n}\r\n",
  "sourcePath": "C:\\Users\\Hasan\\Desktop\\bit-oracle.git\\contracts\\BitLibrary.sol",
  "compiler": {
    "name": "solc",
    "version": "0.4.24+commit.e67f0147.Emscripten.clang"
  },
  "schemaVersion": "2.0.1",
  "updatedAt": "2018-08-24T11:38:33.383Z"
}