{
  "contractName": "BitOracle",
  "abi": [
    {
      "constant": true,
      "inputs": [],
      "name": "owner",
      "outputs": [
        {
          "name": "",
          "type": "address"
        }
      ],
      "payable": false,
      "stateMutability": "view",
      "type": "function"
    },
    {
      "constant": true,
      "inputs": [],
      "name": "bit",
      "outputs": [
        {
          "name": "",
          "type": "bool"
        }
      ],
      "payable": false,
      "stateMutability": "view",
      "type": "function"
    },
    {
      "inputs": [],
      "payable": false,
      "stateMutability": "nonpayable",
      "type": "constructor"
    },
    {
      "anonymous": false,
      "inputs": [
        {
          "indexed": true,
          "name": "_from",
          "type": "address"
        },
        {
          "indexed": true,
          "name": "_value",
          "type": "bool"
        }
      ],
      "name": "Bit",
      "type": "event"
    },
    {
      "constant": false,
      "inputs": [
        {
          "name": "_bit",
          "type": "bool"
        }
      ],
      "name": "setBit",
      "outputs": [
        {
          "name": "",
          "type": "bool"
        }
      ],
      "payable": false,
      "stateMutability": "nonpayable",
      "type": "function"
    },
    {
      "constant": true,
      "inputs": [],
      "name": "getBit",
      "outputs": [
        {
          "name": "",
          "type": "bool"
        }
      ],
      "payable": false,
      "stateMutability": "view",
      "type": "function"
    }
  ],
  "bytecode": "0x608060405234801561001057600080fd5b50336000806101000a81548173ffffffffffffffffffffffffffffffffffffffff021916908373ffffffffffffffffffffffffffffffffffffffff16021790555060008060146101000a81548160ff0219169083151502179055506102ac8061007a6000396000f300608060405260043610610062576000357c0100000000000000000000000000000000000000000000000000000000900463ffffffff16806346e3eaa1146100675780638da5cb5b146100965780639e407998146100ed578063b1ca5fe61461011c575b600080fd5b34801561007357600080fd5b5061007c610163565b604051808215151515815260200191505060405180910390f35b3480156100a257600080fd5b506100ab610179565b604051808273ffffffffffffffffffffffffffffffffffffffff1673ffffffffffffffffffffffffffffffffffffffff16815260200191505060405180910390f35b3480156100f957600080fd5b5061010261019e565b604051808215151515815260200191505060405180910390f35b34801561012857600080fd5b506101496004803603810190808035151590602001909291905050506101b1565b604051808215151515815260200191505060405180910390f35b60008060149054906101000a900460ff16905090565b6000809054906101000a900473ffffffffffffffffffffffffffffffffffffffff1681565b600060149054906101000a900460ff1681565b60008060009054906101000a900473ffffffffffffffffffffffffffffffffffffffff1673ffffffffffffffffffffffffffffffffffffffff163373ffffffffffffffffffffffffffffffffffffffff16141561027b578115153373ffffffffffffffffffffffffffffffffffffffff167f58ea9bced50c75bb300f6a8165976b45178945731171ca2f53f5817a177eec3d60405160405180910390a381600060146101000a81548160ff021916908315150217905550600060149054906101000a900460ff1690505b9190505600a165627a7a72305820bf07469b3eb89209336d2e7d93f15f8b8b15a5cf5ef263c8e414a0d0e90fd6ba0029",
  "source": "pragma solidity ^0.4.23;\n\ncontract BitOracle {\n    address public owner;\n    bool public bit;\n\n    event Bit(\n        address indexed _from,\n        bool indexed _value\n    );\n\n    constructor() public {\n        owner = msg.sender;\n        bit = false;\n    }\n\n    modifier restricted() {\n        if (msg.sender == owner) _;\n    }\n\n    function setBit(bool _bit) public restricted returns (bool) {\n        emit Bit(msg.sender, _bit);\n        bit = _bit;\n        return bit;\n    }\n\n    function getBit() public view returns (bool) {\n        return bit;\n    }\n}\n",
  "sourcePath": "/home/hsk81/Documents/bit-oracle.git/contracts/BitOracle.sol",
  "compiler": {
    "name": "solc",
    "version": "0.4.24+commit.e67f0147.Emscripten.clang"
  },
  "schemaVersion": "2.0.1",
  "updatedAt": "2018-08-22T22:58:49.768Z"
}