{
  "contractName": "BitOracle",
  "abi": [
    {
      "constant": true,
      "inputs": [],
      "name": "owner",
      "outputs": [
        {
          "name": "",
          "type": "address"
        }
      ],
      "payable": false,
      "stateMutability": "view",
      "type": "function"
    },
    {
      "constant": true,
      "inputs": [],
      "name": "bit",
      "outputs": [
        {
          "name": "",
          "type": "bool"
        }
      ],
      "payable": false,
      "stateMutability": "view",
      "type": "function"
    },
    {
      "inputs": [],
      "payable": false,
      "stateMutability": "nonpayable",
      "type": "constructor"
    },
    {
      "anonymous": false,
      "inputs": [
        {
          "indexed": true,
          "name": "_from",
          "type": "address"
        },
        {
          "indexed": true,
          "name": "_value",
          "type": "bool"
        }
      ],
      "name": "Bit",
      "type": "event"
    },
    {
      "constant": false,
      "inputs": [
        {
          "name": "_bit",
          "type": "bool"
        }
      ],
      "name": "setBit",
      "outputs": [],
      "payable": false,
      "stateMutability": "nonpayable",
      "type": "function"
    },
    {
      "constant": true,
      "inputs": [],
      "name": "getBit",
      "outputs": [
        {
          "name": "",
          "type": "bool"
        }
      ],
      "payable": false,
      "stateMutability": "view",
      "type": "function"
    }
  ],
  "bytecode": "0x608060405234801561001057600080fd5b50336000806101000a81548173ffffffffffffffffffffffffffffffffffffffff021916908373ffffffffffffffffffffffffffffffffffffffff16021790555061027e806100606000396000f300608060405260043610610062576000357c0100000000000000000000000000000000000000000000000000000000900463ffffffff16806346e3eaa1146100675780638da5cb5b146100965780639e407998146100ed578063b1ca5fe61461011c575b600080fd5b34801561007357600080fd5b5061007c61014b565b604051808215151515815260200191505060405180910390f35b3480156100a257600080fd5b506100ab610161565b604051808273ffffffffffffffffffffffffffffffffffffffff1673ffffffffffffffffffffffffffffffffffffffff16815260200191505060405180910390f35b3480156100f957600080fd5b50610102610186565b604051808215151515815260200191505060405180910390f35b34801561012857600080fd5b50610149600480360381019080803515159060200190929190505050610199565b005b60008060149054906101000a900460ff16905090565b6000809054906101000a900473ffffffffffffffffffffffffffffffffffffffff1681565b600060149054906101000a900460ff1681565b6000809054906101000a900473ffffffffffffffffffffffffffffffffffffffff1673ffffffffffffffffffffffffffffffffffffffff163373ffffffffffffffffffffffffffffffffffffffff16141561024f578015153373ffffffffffffffffffffffffffffffffffffffff167f58ea9bced50c75bb300f6a8165976b45178945731171ca2f53f5817a177eec3d60405160405180910390a380600060146101000a81548160ff0219169083151502179055505b505600a165627a7a7230582060e7b75211f6934fba0050b84ba6146318f0dcd68fcb29cdab18cc55f6c80c6a0029",
  "source": "pragma solidity ^0.4.23;\n\ncontract BitOracle {\n  address public owner;\n  bool public bit;\n\n  event Bit(\n      address indexed _from,\n      bool indexed _value\n  );\n\n  constructor() public {\n    owner = msg.sender;\n  }\n\n  modifier restricted() {\n    if (msg.sender == owner) _;\n  }\n\n  function setBit(bool _bit) public restricted {\n    emit Bit(msg.sender, _bit);\n    bit = _bit;\n  }\n\n  function getBit() public view returns (bool) {\n    return bit;\n  }\n}\n",
  "sourcePath": "/home/hsk81/Documents/bit-oracle.git/contracts/BitOracle.sol",
  "compiler": {
    "name": "solc",
    "version": "0.4.24+commit.e67f0147.Emscripten.clang"
  },
  "schemaVersion": "2.0.1",
  "updatedAt": "2018-08-21T08:07:11.262Z"
}