{
  "contractName": "BitOracle",
  "abi": [
    {
      "constant": true,
      "inputs": [],
      "name": "owner",
      "outputs": [
        {
          "name": "",
          "type": "address"
        }
      ],
      "payable": false,
      "stateMutability": "view",
      "type": "function"
    },
    {
      "inputs": [],
      "payable": false,
      "stateMutability": "nonpayable",
      "type": "constructor"
    },
    {
      "anonymous": false,
      "inputs": [
        {
          "indexed": true,
          "name": "from",
          "type": "address"
        },
        {
          "indexed": true,
          "name": "bit",
          "type": "bool"
        }
      ],
      "name": "Bit",
      "type": "event"
    },
    {
      "constant": false,
      "inputs": [
        {
          "name": "_bit",
          "type": "bool"
        }
      ],
      "name": "setBit",
      "outputs": [
        {
          "name": "",
          "type": "bool"
        }
      ],
      "payable": false,
      "stateMutability": "nonpayable",
      "type": "function"
    },
    {
      "constant": true,
      "inputs": [],
      "name": "getBit",
      "outputs": [
        {
          "name": "",
          "type": "bool"
        }
      ],
      "payable": false,
      "stateMutability": "view",
      "type": "function"
    }
  ],
  "bytecode": "0x608060405234801561001057600080fd5b50336000806101000a81548173ffffffffffffffffffffffffffffffffffffffff021916908373ffffffffffffffffffffffffffffffffffffffff16021790555061035e806100606000396000f300608060405260043610610057576000357c0100000000000000000000000000000000000000000000000000000000900463ffffffff16806346e3eaa11461005c5780638da5cb5b1461008b578063b1ca5fe6146100e2575b600080fd5b34801561006857600080fd5b50610071610129565b604051808215151515815260200191505060405180910390f35b34801561009757600080fd5b506100a06101d7565b604051808273ffffffffffffffffffffffffffffffffffffffff1673ffffffffffffffffffffffffffffffffffffffff16815260200191505060405180910390f35b3480156100ee57600080fd5b5061010f6004803603810190808035151590602001909291905050506101fc565b604051808215151515815260200191505060405180910390f35b600073__BitLibrary____________________________63b52673c460016040518263ffffffff167c01000000000000000000000000000000000000000000000000000000000281526004018082815260200191505060206040518083038186803b15801561019757600080fd5b505af41580156101ab573d6000803e3d6000fd5b505050506040513d60208110156101c157600080fd5b8101908080519060200190929190505050905090565b6000809054906101000a900473ffffffffffffffffffffffffffffffffffffffff1681565b60008060009054906101000a900473ffffffffffffffffffffffffffffffffffffffff1673ffffffffffffffffffffffffffffffffffffffff163373ffffffffffffffffffffffffffffffffffffffff16141561032d578115153373ffffffffffffffffffffffffffffffffffffffff167f58ea9bced50c75bb300f6a8165976b45178945731171ca2f53f5817a177eec3d60405160405180910390a373__BitLibrary____________________________637b6e210b6001846040518363ffffffff167c010000000000000000000000000000000000000000000000000000000002815260040180838152602001821515151581526020019250505060006040518083038186803b15801561031157600080fd5b505af4158015610325573d6000803e3d6000fd5b505050508190505b9190505600a165627a7a723058200a6406b11857ec46d15252817e0a468dd07a52f75a61ca0209d181df63094e090029",
  "source": "pragma solidity ^0.4.23;\r\n\r\nimport \"./BitLibrary.sol\";\r\n\r\n/** @title Bit Oracle. */\r\ncontract BitOracle {\r\n    /** @dev Denotes the contract owner. */\r\n    address public owner;\r\n    /** @dev Denotes the contract state. */\r\n    BitLibrary.Data private data;\r\n\r\n    /** @dev Constructs the contract. */\r\n    constructor() public {\r\n        owner = msg.sender;\r\n    }\r\n\r\n    /** @dev Restricts invocation to contract owner. */\r\n    modifier restricted() {\r\n        if (msg.sender == owner) _;\r\n    }\r\n\r\n    /** @dev Sets contract state to provided value and returns it. The\r\n      *      invocation is restricted to the contract owner. Also, a\r\n      *      `Bit` event is emitted.\r\n      *\r\n      * @param _bit Bit value to set to.\r\n      */\r\n    function setBit(bool _bit) public restricted returns (bool) {\r\n        emit Bit(msg.sender, _bit);\r\n        BitLibrary.set(data, _bit);\r\n        return _bit;\r\n    }\r\n\r\n    /** @dev Gets contract state.*/\r\n    function getBit() public view returns (bool) {\r\n        return BitLibrary.get(data);\r\n    }\r\n\r\n    /** @dev Event emitted on contract state changes.*/\r\n    event Bit(\r\n        /** @dev Contract state change originator. */\r\n        address indexed from,\r\n        /** @dev Contract state change value. */\r\n        bool indexed bit\r\n    );\r\n}\r\n",
  "sourcePath": "C:\\Users\\Hasan\\Desktop\\bit-oracle.git\\contracts\\BitOracle.sol",
  "compiler": {
    "name": "solc",
    "version": "0.4.24+commit.e67f0147.Emscripten.clang"
  },
  "schemaVersion": "2.0.1",
  "updatedAt": "2018-08-24T13:07:54.745Z"
}